{
  "abi": [
    {
      "inputs": [
        {
          "internalType": "address",
          "name": "_manager",
          "type": "address"
        },
        {
          "internalType": "address",
          "name": "_stablecoin",
          "type": "address"
        },
        {
          "internalType": "address",
          "name": "_protocolToken",
          "type": "address"
        }
      ],
      "stateMutability": "nonpayable",
      "type": "constructor"
    },
    {
      "inputs": [
        {
          "internalType": "uint256",
          "name": "amountToLock",
          "type": "uint256"
        },
        {
          "internalType": "uint256",
          "name": "amountLeft",
          "type": "uint256"
        }
      ],
      "name": "INSUFFICIENT_COLLATERAL",
      "type": "error"
    },
    {
      "inputs": [],
      "name": "ACTIVE_PERIODS",
      "outputs": [
        {
          "internalType": "uint256",
          "name": "",
          "type": "uint256"
        }
      ],
      "stateMutability": "view",
      "type": "function"
    },
    {
      "inputs": [],
      "name": "PERIOD_LENGTH",
      "outputs": [
        {
          "internalType": "uint256",
          "name": "",
          "type": "uint256"
        }
      ],
      "stateMutability": "view",
      "type": "function"
    },
    {
      "inputs": [],
      "name": "ROOT_PROPOSAL_LOCK_AMOUNT",
      "outputs": [
        {
          "internalType": "uint256",
          "name": "",
          "type": "uint256"
        }
      ],
      "stateMutability": "view",
      "type": "function"
    },
    {
      "inputs": [
        {
          "components": [
            {
              "internalType": "uint256[]",
              "name": "lockId",
              "type": "uint256[]"
            },
            {
              "internalType": "uint256[]",
              "name": "depositId",
              "type": "uint256[]"
            },
            {
              "internalType": "uint256",
              "name": "rewardChainId",
              "type": "uint256"
            },
            {
              "internalType": "address[]",
              "name": "rewardAsset",
              "type": "address[]"
            }
          ],
          "internalType": "struct Staking.ClaimParams",
          "name": "_params",
          "type": "tuple"
        }
      ],
      "name": "claim",
      "outputs": [],
      "stateMutability": "payable",
      "type": "function"
    },
    {
      "inputs": [],
      "name": "currentDepositId",
      "outputs": [
        {
          "internalType": "Id",
          "name": "",
          "type": "uint256"
        }
      ],
      "stateMutability": "view",
      "type": "function"
    },
    {
      "inputs": [],
      "name": "currentLockId",
      "outputs": [
        {
          "internalType": "Id",
          "name": "",
          "type": "uint256"
        }
      ],
      "stateMutability": "view",
      "type": "function"
    },
    {
      "inputs": [
        {
          "internalType": "uint256",
          "name": "",
          "type": "uint256"
        }
      ],
      "name": "deposits",
      "outputs": [
        {
          "internalType": "address",
          "name": "staker",
          "type": "address"
        },
        {
          "internalType": "address",
          "name": "asset",
          "type": "address"
        },
        {
          "internalType": "uint256",
          "name": "amount",
          "type": "uint256"
        },
        {
          "internalType": "uint256",
          "name": "blockNumber",
          "type": "uint256"
        },
        {
          "internalType": "uint256",
          "name": "unlockTime",
          "type": "uint256"
        },
        {
          "internalType": "uint256",
          "name": "withdrawn",
          "type": "uint256"
        }
      ],
      "stateMutability": "view",
      "type": "function"
    },
    {
      "inputs": [],
      "name": "getActiveTranches",
      "outputs": [
        {
          "internalType": "uint256[3]",
          "name": "tranches",
          "type": "uint256[3]"
        }
      ],
      "stateMutability": "view",
      "type": "function"
    },
    {
      "inputs": [
        {
          "internalType": "uint256",
          "name": "_blockNumber",
          "type": "uint256"
        }
      ],
      "name": "getActiveTranches",
      "outputs": [
        {
          "internalType": "uint256[3]",
          "name": "tranches",
          "type": "uint256[3]"
        }
      ],
      "stateMutability": "view",
      "type": "function"
    },
    {
      "inputs": [],
      "name": "getAllLockRecords",
      "outputs": [
        {
          "components": [
            {
              "internalType": "uint256",
              "name": "amountLocked",
              "type": "uint256"
            },
            {
              "internalType": "uint256",
              "name": "totalAvailable",
              "type": "uint256"
            },
            {
              "internalType": "uint256",
              "name": "blockNumber",
              "type": "uint256"
            },
            {
              "internalType": "address",
              "name": "asset",
              "type": "address"
            }
          ],
          "internalType": "struct Staking.LockRecord[]",
          "name": "",
          "type": "tuple[]"
        }
      ],
      "stateMutability": "view",
      "type": "function"
    },
    {
      "inputs": [
        {
          "internalType": "address",
          "name": "_staker",
          "type": "address"
        },
        {
          "internalType": "uint256",
          "name": "_chainId",
          "type": "uint256"
        },
        {
          "internalType": "address",
          "name": "_asset",
          "type": "address"
        }
      ],
      "name": "getAvailableToClaim",
      "outputs": [
        {
          "internalType": "uint256",
          "name": "availableToClaim",
          "type": "uint256"
        }
      ],
      "stateMutability": "view",
      "type": "function"
    },
    {
      "inputs": [
        {
          "internalType": "uint256",
          "name": "_from",
          "type": "uint256"
        },
        {
          "internalType": "uint256",
          "name": "_to",
          "type": "uint256"
        }
      ],
      "name": "getLockRecords",
      "outputs": [
        {
          "components": [
            {
              "internalType": "uint256",
              "name": "amountLocked",
              "type": "uint256"
            },
            {
              "internalType": "uint256",
              "name": "totalAvailable",
              "type": "uint256"
            },
            {
              "internalType": "uint256",
              "name": "blockNumber",
              "type": "uint256"
            },
            {
              "internalType": "address",
              "name": "asset",
              "type": "address"
            }
          ],
          "internalType": "struct Staking.LockRecord[]",
          "name": "",
          "type": "tuple[]"
        }
      ],
      "stateMutability": "view",
      "type": "function"
    },
    {
      "inputs": [
        {
          "internalType": "address",
          "name": "_staker",
          "type": "address"
        }
      ],
      "name": "getUnlocked",
      "outputs": [
        {
          "internalType": "uint256",
          "name": "stablecoinUnlocked",
          "type": "uint256"
        },
        {
          "internalType": "uint256",
          "name": "protocolUnlocked",
          "type": "uint256"
        }
      ],
      "stateMutability": "view",
      "type": "function"
    },
    {
      "inputs": [
        {
          "internalType": "address",
          "name": "_user",
          "type": "address"
        }
      ],
      "name": "getUserDepositIds",
      "outputs": [
        {
          "internalType": "uint256[]",
          "name": "",
          "type": "uint256[]"
        }
      ],
      "stateMutability": "view",
      "type": "function"
    },
    {
      "inputs": [
        {
          "internalType": "address",
          "name": "_user",
          "type": "address"
        }
      ],
      "name": "getUserDepositRecords",
      "outputs": [
        {
          "components": [
            {
              "internalType": "address",
              "name": "staker",
              "type": "address"
            },
            {
              "internalType": "address",
              "name": "asset",
              "type": "address"
            },
            {
              "internalType": "uint256",
              "name": "amount",
              "type": "uint256"
            },
            {
              "internalType": "uint256",
              "name": "blockNumber",
              "type": "uint256"
            },
            {
              "internalType": "uint256",
              "name": "unlockTime",
              "type": "uint256"
            },
            {
              "internalType": "uint256",
              "name": "withdrawn",
              "type": "uint256"
            }
          ],
          "internalType": "struct Staking.DepositRecord[]",
          "name": "",
          "type": "tuple[]"
        }
      ],
      "stateMutability": "view",
      "type": "function"
    },
    {
      "inputs": [
        {
          "internalType": "address",
          "name": "",
          "type": "address"
        },
        {
          "internalType": "address",
          "name": "",
          "type": "address"
        }
      ],
      "name": "individualStaked",
      "outputs": [
        {
          "internalType": "uint256",
          "name": "",
          "type": "uint256"
        }
      ],
      "stateMutability": "view",
      "type": "function"
    },
    {
      "inputs": [
        {
          "internalType": "address",
          "name": "_asset",
          "type": "address"
        },
        {
          "internalType": "uint256",
          "name": "_amountToLock",
          "type": "uint256"
        }
      ],
      "name": "lock",
      "outputs": [
        {
          "internalType": "uint256",
          "name": "",
          "type": "uint256"
        }
      ],
      "stateMutability": "nonpayable",
      "type": "function"
    },
    {
      "inputs": [
        {
          "internalType": "uint256",
          "name": "",
          "type": "uint256"
        }
      ],
      "name": "locks",
      "outputs": [
        {
          "internalType": "uint256",
          "name": "amountLocked",
          "type": "uint256"
        },
        {
          "internalType": "uint256",
          "name": "totalAvailable",
          "type": "uint256"
        },
        {
          "internalType": "uint256",
          "name": "blockNumber",
          "type": "uint256"
        },
        {
          "internalType": "address",
          "name": "asset",
          "type": "address"
        }
      ],
      "stateMutability": "view",
      "type": "function"
    },
    {
      "inputs": [],
      "name": "minimumProtocolStake",
      "outputs": [
        {
          "internalType": "uint256",
          "name": "",
          "type": "uint256"
        }
      ],
      "stateMutability": "view",
      "type": "function"
    },
    {
      "inputs": [],
      "name": "minimumStablecoinStake",
      "outputs": [
        {
          "internalType": "uint256",
          "name": "",
          "type": "uint256"
        }
      ],
      "stateMutability": "view",
      "type": "function"
    },
    {
      "inputs": [
        {
          "internalType": "uint256",
          "name": "_chainId",
          "type": "uint256"
        },
        {
          "internalType": "address",
          "name": "_asset",
          "type": "address"
        },
        {
          "internalType": "uint256",
          "name": "_amount",
          "type": "uint256"
        }
      ],
      "name": "payInsurance",
      "outputs": [],
      "stateMutability": "nonpayable",
      "type": "function"
    },
    {
      "inputs": [],
      "name": "protocolToken",
      "outputs": [
        {
          "internalType": "address",
          "name": "",
          "type": "address"
        }
      ],
      "stateMutability": "view",
      "type": "function"
    },
    {
      "inputs": [
        {
          "internalType": "uint256",
          "name": "_lockId",
          "type": "uint256"
        },
        {
          "internalType": "uint256",
          "name": "_chainId",
          "type": "uint256"
        },
        {
          "internalType": "address",
          "name": "_asset",
          "type": "address"
        },
        {
          "internalType": "uint256",
          "name": "_amount",
          "type": "uint256"
        }
      ],
      "name": "reward",
      "outputs": [],
      "stateMutability": "nonpayable",
      "type": "function"
    },
    {
      "inputs": [],
      "name": "stablecoin",
      "outputs": [
        {
          "internalType": "address",
          "name": "",
          "type": "address"
        }
      ],
      "stateMutability": "view",
      "type": "function"
    },
    {
      "inputs": [
        {
          "internalType": "uint256",
          "name": "_stablecoinAmount",
          "type": "uint256"
        }
      ],
      "name": "stablecoinToProtocol",
      "outputs": [
        {
          "internalType": "uint256",
          "name": "",
          "type": "uint256"
        }
      ],
      "stateMutability": "pure",
      "type": "function"
    },
    {
      "inputs": [
        {
          "internalType": "address",
          "name": "_asset",
          "type": "address"
        },
        {
          "internalType": "uint256",
          "name": "_amount",
          "type": "uint256"
        },
        {
          "internalType": "uint256",
          "name": "_unlockTime",
          "type": "uint256"
        }
      ],
      "name": "stake",
      "outputs": [],
      "stateMutability": "nonpayable",
      "type": "function"
    },
    {
      "inputs": [
        {
          "internalType": "uint256",
          "name": "_amount",
          "type": "uint256"
        }
      ],
      "name": "stakeProtocol",
      "outputs": [],
      "stateMutability": "nonpayable",
      "type": "function"
    },
    {
      "inputs": [
        {
          "internalType": "uint256",
          "name": "_amount",
          "type": "uint256"
        }
      ],
      "name": "stakeStablecoin",
      "outputs": [],
      "stateMutability": "nonpayable",
      "type": "function"
    },
    {
      "inputs": [
        {
          "internalType": "address",
          "name": "",
          "type": "address"
        }
      ],
      "name": "totalStaked",
      "outputs": [
        {
          "internalType": "uint256",
          "name": "",
          "type": "uint256"
        }
      ],
      "stateMutability": "view",
      "type": "function"
    },
    {
      "inputs": [
        {
          "internalType": "uint256[]",
          "name": "_lockIds",
          "type": "uint256[]"
        }
      ],
      "name": "unlock",
      "outputs": [],
      "stateMutability": "nonpayable",
      "type": "function"
    },
    {
      "inputs": [
        {
          "internalType": "uint256[]",
          "name": "_depositIds",
          "type": "uint256[]"
        }
      ],
      "name": "withdraw",
      "outputs": [],
      "stateMutability": "nonpayable",
      "type": "function"
    }
  ],
  "bytecode": {
    "object": "0x60a06040526000805560006001553480156200001a57600080fd5b506040516200394b3803806200394b8339810160408190526200003d9162000091565b6001600160a01b03928316608052600c80549284166001600160a01b0319938416179055600d8054919093169116179055620000db565b80516001600160a01b03811681146200008c57600080fd5b919050565b600080600060608486031215620000a757600080fd5b620000b28462000074565b9250620000c26020850162000074565b9150620000d26040850162000074565b90509250925092565b60805161381562000136600039600081816106ad0152818161087301528181610bbc015281816111200152818161132b01528181611a2101528181611d3701528181611f9c015281816129c60152612dcd01526138156000f3fe6080604052600436106101d85760003560e01c8063983d95ce11610102578063b4104d1011610095578063df7bb61f11610064578063df7bb61f146105e0578063e7a891b914610600578063e9cbd82214610617578063f4dadc611461063757600080fd5b8063b4104d1014610568578063c86755071461057e578063d4e4487d14610593578063d86d30a4146105c057600080fd5b8063a6f30ccb116100d1578063a6f30ccb14610486578063ab900a8d146104b3578063b00ea817146102e8578063b02c43d0146104d157600080fd5b8063983d95ce146103e15780639bfd8d6114610401578063a2cc44971461042e578063a6d7f27d1461046657600080fd5b806330a5c2f01161017a5780635d36598f116101495780635d36598f1461034a578063675befd21461036a57806394463bb31461038a57806394e11ca8146103ac57600080fd5b806330a5c2f0146102d257806330e13a6a146102e85780633e8e42b2146102fd5780633ecbdc9c1461032a57600080fd5b80631b35ee56116101b65780631b35ee561461025c5780631dd91e341461026f57806320755d0014610292578063282d3fdf146102b257600080fd5b806303c1e4b2146101dd5780630c51b88f146101ff5780631a465fe11461021f575b600080fd5b3480156101e957600080fd5b506101fd6101f8366004612ff1565b6106ab565b005b34801561020b57600080fd5b506101fd61021a366004613030565b61078f565b34801561022b57600080fd5b50600d5461023f906001600160a01b031681565b6040516001600160a01b0390911681526020015b60405180910390f35b6101fd61026a366004613065565b610a7b565b34801561027b57600080fd5b50610284600381565b604051908152602001610253565b34801561029e57600080fd5b506101fd6102ad3660046130a0565b61121b565b3480156102be57600080fd5b506102846102cd3660046130b9565b611327565b3480156102de57600080fd5b5061028460015481565b3480156102f457600080fd5b5061028460c881565b34801561030957600080fd5b5061031d6103183660046130e5565b611793565b6040516102539190613102565b34801561033657600080fd5b506101fd6103453660046130a0565b61191b565b34801561035657600080fd5b506101fd610365366004613186565b611a1d565b34801561037657600080fd5b506102846103853660046131fb565b611f97565b34801561039657600080fd5b5061039f612274565b604051610253919061323d565b3480156103b857600080fd5b506103cc6103c73660046130e5565b61228a565b60408051928352602083019190915201610253565b3480156103ed57600080fd5b506101fd6103fc366004613186565b61241b565b34801561040d57600080fd5b5061028461041c3660046130e5565b60056020526000908152604090205481565b34801561043a57600080fd5b5061028461044936600461326e565b600660209081526000928352604080842090915290825290205481565b34801561047257600080fd5b506101fd6104813660046132a7565b6129c4565b34801561049257600080fd5b506104a66104a13660046132df565b612a9f565b6040516102539190613301565b3480156104bf57600080fd5b5061028469021e19e0c9bab240000081565b3480156104dd57600080fd5b506105306104ec3660046130a0565b60026020819052600091825260409091208054600182015492820154600383015460048401546005909401546001600160a01b039384169590931693919290919086565b604080516001600160a01b039788168152969095166020870152938501929092526060840152608083015260a082015260c001610253565b34801561057457600080fd5b5061028460005481565b34801561058a57600080fd5b506104a6612c09565b34801561059f57600080fd5b506105b36105ae3660046130e5565b612d1f565b6040516102539190613361565b3480156105cc57600080fd5b506102846105db3660046130a0565b612d43565b3480156105ec57600080fd5b5061039f6105fb3660046130a0565b612d94565b34801561060c57600080fd5b50610284624f1a0081565b34801561062357600080fd5b50600c5461023f906001600160a01b031681565b34801561064357600080fd5b506106826106523660046130a0565b6007602052600090815260409020805460018201546002830154600390930154919290916001600160a01b031684565b604080519485526020850193909352918301526001600160a01b03166060820152608001610253565b7f00000000000000000000000000000000000000000000000000000000000000006001600160a01b031663cb23bcb56040518163ffffffff1660e01b8152600401602060405180830381865afa158015610709573d6000803e3d6000fd5b505050506040513d601f19601f8201168201806040525081019061072d91906133a5565b6001600160a01b0316336001600160a01b03161461074a57600080fd5b600084815260086020908152604080832086845282528083206001600160a01b0386168452909152812080548392906107849084906133f1565b909155505050505050565b600c546001600160a01b03848116911614806107b85750600d546001600160a01b038481169116145b6107c157600080fd5b6040517f23b872dd000000000000000000000000000000000000000000000000000000008152336004820152306024820152604481018390526001600160a01b038416906323b872dd906064016020604051808303816000875af115801561082d573d6000803e3d6000fd5b505050506040513d601f19601f820116820180604052508101906108519190613404565b61085a57600080fd5b610867624f1a0082613455565b1561087157600080fd5b7f00000000000000000000000000000000000000000000000000000000000000006001600160a01b031663d43a33ea6040518163ffffffff1660e01b8152600401602060405180830381865afa1580156108cf573d6000803e3d6000fd5b505050506040513d601f19601f820116820180604052508101906108f39190613469565b6108fd9082613482565b431061090857600080fd5b6040805160c081018252338082526001600160a01b038681166020808501918252848601888152436060870190815260808701898152600060a089018181528154825260028087528b83209a518b54908a167fffffffffffffffffffffffff0000000000000000000000000000000000000000918216178c55975160018c01805491909a169816979097179097559251948801949094555160038088019190915592516004870155925160059095019490945581549282529092529190206109cf91612eb7565b506001600160a01b0383166000908152600b6020908152604080832084845290915281208054849290610a039084906133f1565b90915550506001600160a01b03831660009081526005602052604081208054849290610a309084906133f1565b90915550503360009081526006602090815260408083206001600160a01b038716845290915281208054849290610a689084906133f1565b9091555050600054600101600055505050565b60005b610a8b6020830183613495565b9050811015610eae576000610aa36020840184613495565b83818110610ab357610ab3613504565b602090810292909201356000818152600290935260409092208054929350916001600160a01b031633149050610b565760405162461bcd60e51b815260206004820152602360248201527f53656e646572206e6f74207374616b6572206f66206465706f7369742072656360448201527f6f7264000000000000000000000000000000000000000000000000000000000060648201526084015b60405180910390fd5b60005b610b638580613495565b9050811015610e98576000610b788680613495565b83818110610b8857610b88613504565b905060200201359050600060076000838152602001908152602001600020905080600201548460030154101580610c5257507f00000000000000000000000000000000000000000000000000000000000000006001600160a01b031663d43a33ea6040518163ffffffff1660e01b8152600401602060405180830381865afa158015610c18573d6000803e3d6000fd5b505050506040513d601f19601f82011682018060405250810190610c3c9190613469565b8460040154610c4b9190613482565b8160020154115b80610c725750600184015460038201546001600160a01b03908116911614155b15610c7e575050610e86565b60005b610c8e6060890189613495565b9050811015610e82576000610ca660608a018a613495565b83818110610cb657610cb6613504565b9050602002016020810190610ccb91906130e5565b60008581526008602090815260408083208d820135845282528083206001600160a01b0385168452909152812054600186015492935091610d0f90620186a0613533565b6002890154610d1e9084613533565b610d2b90620186a0613533565b610d35919061354a565b60008a81526004602090815260408083208a845282528083208f820135845282528083206001600160a01b038816845290915290205490915081811015610e6b576000610d828284613482565b905080600460008d815260200190815260200160002060008a815260200190815260200160002060008f6040013581526020019081526020016000206000876001600160a01b03166001600160a01b031681526020019081526020016000206000828254610df091906133f1565b925050819055508060096000336001600160a01b03166001600160a01b0316815260200190815260200160002060008f6040013581526020019081526020016000206000876001600160a01b03166001600160a01b031681526020019081526020016000206000828254610e6491906133f1565b9091555050505b505050508080610e7a9061355e565b915050610c81565b5050505b80610e908161355e565b915050610b59565b5050508080610ea69061355e565b915050610a7e565b506000610ebe6060830183613495565b905067ffffffffffffffff811115610ed857610ed8613596565b604051908082528060200260200182016040528015610f4157816020015b60408051606081018252600080825260208083018290529282015282527fffffffffffffffffffffffffffffffffffffffffffffffffffffffffffffffff909201910181610ef65790505b50905060005b610f546060840184613495565b905081101561111d57336000908152600960209081526040808320868201358452909152812081610f886060870187613495565b85818110610f9857610f98613504565b9050602002016020810190610fad91906130e5565b6001600160a01b03166001600160a01b03168152602001908152602001600020549050806000036110205760405162461bcd60e51b815260206004820152601460248201527f416d6f756e7420746f20636c61696d20697320300000000000000000000000006044820152606401610b4d565b6040518060600160405280336001600160a01b0316815260200185806060019061104a9190613495565b8581811061105a5761105a613504565b905060200201602081019061106f91906130e5565b6001600160a01b031681526020018281525083838151811061109357611093613504565b602090810291909101810191909152336000908152600982526040808220878201358352909252908120816110cb6060880188613495565b868181106110db576110db613504565b90506020020160208101906110f091906130e5565b6001600160a01b0316815260208101919091526040016000205550806111158161355e565b915050610f47565b507f00000000000000000000000000000000000000000000000000000000000000006001600160a01b0316638406c0796040518163ffffffff1660e01b8152600401602060405180830381865afa15801561117c573d6000803e3d6000fd5b505050506040513d601f19601f820116820180604052508101906111a091906133a5565b6001600160a01b031663ea03683d3484604001358460405180602001604052806000815250336040518663ffffffff1660e01b81526004016111e59493929190613629565b6000604051808303818588803b1580156111fe57600080fd5b505af1158015611212573d6000803e3d6000fd5b50505050505050565b600d60009054906101000a90046001600160a01b03166001600160a01b031663313ce5676040518163ffffffff1660e01b8152600401602060405180830381865afa15801561126e573d6000803e3d6000fd5b505050506040513d601f19601f8201168201806040525081019061129291906136c3565b61129d90600a613806565b6112a89060c8613533565b8110156112f75760405162461bcd60e51b815260206004820152601c60248201527f42454c4f575f4d494e494d554d5f50524f544f434f4c5f5354414b45000000006044820152606401610b4d565b6000611301612274565b600d54909150611323906001600160a01b0316838360005b602002015161078f565b5050565b60007f00000000000000000000000000000000000000000000000000000000000000006001600160a01b031663cb23bcb56040518163ffffffff1660e01b8152600401602060405180830381865afa158015611387573d6000803e3d6000fd5b505050506040513d601f19601f820116820180604052508101906113ab91906133a5565b6001600160a01b0316336001600160a01b03161461140b5760405162461bcd60e51b815260206004820152601460248201527f4f6e6c7920726f6c6c75702063616e206c6f636b0000000000000000000000006044820152606401610b4d565b8160000361145b5760405162461bcd60e51b815260206004820152601c60248201527f416d6f756e7420746f206c6f636b206d757374206e6f742062652030000000006044820152606401610b4d565b600c546001600160a01b03848116911614806114845750600d546001600160a01b038481169116145b6114f65760405162461bcd60e51b815260206004820152602960248201527f43616e206f6e6c79206c6f636b20737461626c65636f696e206f722070726f7460448201527f6f636f6c546f6b656e00000000000000000000000000000000000000000000006064820152608401610b4d565b6000611500612274565b9050600083815b60038110156116ae5781156116ae576001600160a01b0387166000908152600b602052604081208186846003811061154157611541613504565b6020020151815260200190815260200160002060010154600b60008a6001600160a01b03166001600160a01b03168152602001908152602001600020600087856003811061159157611591613504565b60200201518152602001908152602001600020600001546115b29190613482565b9050806000036115c2575061169c565b6115cc81856133f1565b935082811161163f576115df8184613482565b6001600160a01b0389166000908152600b6020526040812091945082919087856003811061160f5761160f613504565b60200201518152602001908152602001600020600101600082825461163491906133f1565b9091555061169a9050565b6001600160a01b0388166000908152600b60205260408120849187856003811061166b5761166b613504565b60200201518152602001908152602001600020600101600082825461169091906133f1565b9091555060009350505b505b806116a68161355e565b915050611507565b5080156116f1576040517f5fa489550000000000000000000000000000000000000000000000000000000081526004810186905260248101829052604401610b4d565b604080516080810182528681526020808201858152438385019081526001600160a01b038b811660608601908152600180546000908152600790965296909420945185559151848601555160028401559051600390920180547fffffffffffffffffffffffff00000000000000000000000000000000000000001692909116919091179055805401600181815561178791613482565b93505050505b92915050565b6001600160a01b0381166000908152600360205260408120606091906117b890612ec3565b90506000815167ffffffffffffffff8111156117d6576117d6613596565b60405190808252806020026020018201604052801561185257816020015b61183f6040518060c0016040528060006001600160a01b0316815260200160006001600160a01b03168152602001600081526020016000815260200160008152602001600081525090565b8152602001906001900390816117f45790505b50905060005b8251811015611913576002600084838151811061187757611877613504565b6020908102919091018101518252818101929092526040908101600020815160c08101835281546001600160a01b0390811682526001830154169381019390935260028101549183019190915260038101546060830152600481015460808301526005015460a082015282518390839081106118f5576118f5613504565b6020026020010181905250808061190b9061355e565b915050611858565b509392505050565b600c60009054906101000a90046001600160a01b03166001600160a01b031663313ce5676040518163ffffffff1660e01b8152600401602060405180830381865afa15801561196e573d6000803e3d6000fd5b505050506040513d601f19601f8201168201806040525081019061199291906136c3565b61199d90600a613806565b6119a89060c8613533565b8110156119f75760405162461bcd60e51b815260206004820152601e60248201527f42454c4f575f4d494e494d554d5f535441424c45434f494e5f5354414b4500006044820152606401610b4d565b6000611a01612274565b600c54909150611323906001600160a01b031683836000611319565b60007f00000000000000000000000000000000000000000000000000000000000000006001600160a01b031663cb23bcb56040518163ffffffff1660e01b8152600401602060405180830381865afa158015611a7d573d6000803e3d6000fd5b505050506040513d601f19601f82011682018060405250810190611aa191906133a5565b905060005b82811015611f9157816001600160a01b0316630792457c858584818110611acf57611acf613504565b905060200201356040518263ffffffff1660e01b8152600401611af491815260200190565b602060405180830381865afa158015611b11573d6000803e3d6000fd5b505050506040513d601f19601f82011682018060405250810190611b359190613404565b15611ba85760405162461bcd60e51b815260206004820152603b60248201527f537461746520726f6f74206173736f6369617465642077697468206c6f636b2060448201527f494420776173206d61726b6564206173206672617564756c656e7400000000006064820152608401610b4d565b816001600160a01b0316636b6e30e4858584818110611bc957611bc9613504565b905060200201356040518263ffffffff1660e01b8152600401611bee91815260200190565b602060405180830381865afa158015611c0b573d6000803e3d6000fd5b505050506040513d601f19601f82011682018060405250810190611c2f9190613404565b611ca15760405162461bcd60e51b815260206004820152603960248201527f537461746520726f6f74206173736f6369617465642077697468206c6f636b2060448201527f494420686173206e6f74206265656e20636f6e6669726d6564000000000000006064820152608401610b4d565b600060076000868685818110611cb957611cb9613504565b602090810292909201358352508181019290925260409081016000208151608081018352815481526001820154818501526002820154818401526003909101546001600160a01b03908116606083015282517fd43a33ea000000000000000000000000000000000000000000000000000000008152925191945043937f00000000000000000000000000000000000000000000000000000000000000009091169263d43a33ea92600480830193928290030181865afa158015611d80573d6000803e3d6000fd5b505050506040513d601f19601f82011682018060405250810190611da49190613469565b8260400151611db391906133f1565b1115611e275760405162461bcd60e51b815260206004820152602160248201527f4c6f636b20686173206e6f742070617373656420667261756420706572696f6460448201527f2e000000000000000000000000000000000000000000000000000000000000006064820152608401610b4d565b6000611e368260400151612d94565b825190915060005b6003811015611f7a578115611f7a5760608401516001600160a01b03166000908152600b6020526040812081858460038110611e7c57611e7c613504565b6020020151815260200190815260200160002060010154905080600003611ea35750611f68565b808311611f0e5760608501516001600160a01b03166000908152600b602052604081208491868560038110611eda57611eda613504565b602002015181526020019081526020016000206001016000828254611eff9190613482565b9091555060009350611f669050565b60608501516001600160a01b03166000908152600b6020526040812081868560038110611f3d57611f3d613504565b60200201518152602001908152602001600020600101819055508083611f639190613482565b92505b505b80611f728161355e565b915050611e3e565b505050508080611f899061355e565b915050611aa6565b50505050565b6000807f00000000000000000000000000000000000000000000000000000000000000006001600160a01b031663d43a33ea6040518163ffffffff1660e01b8152600401602060405180830381865afa158015611ff8573d6000803e3d6000fd5b505050506040513d601f19601f8201168201806040525081019061201c9190613469565b905060005b6001600160a01b038616600090815260036020526040902061204290612ed0565b81101561226b576001600160a01b038616600090815260036020526040812060029082906120709085612eda565b815260208082019290925260409081016000908120825160c08101845281546001600160a01b03908116825260018301541694810194909452600281015492840192909252600382015460608401526004820154608084015260059091015460a08301529091505b600154811015612256576000818152600760209081526040918290208251608081018452815481526001820154928101929092526002810154928201839052600301546001600160a01b03166060808301919091528401519091111580612151575084836080015161214a9190613482565b8160400151115b80612176575082602001516001600160a01b031681606001516001600160a01b031614155b156121815750612244565b60008281526008602090815260408083208b845282528083206001600160a01b038b1684528252822054908301519091906121bf90620186a0613533565b60408601516121ce9084613533565b6121db90620186a0613533565b6121e5919061354a565b600087815260046020908152604080832088845282528083208e845282528083206001600160a01b038e1684529091529020549091508181101561223f57600061222f8284613482565b905061223b818b6133f1565b9950505b505050505b8061224e8161355e565b9150506120d8565b505080806122639061355e565b915050612021565b50509392505050565b61227c612fbb565b61228543612d94565b905090565b60008060005b6001600160a01b03841660009081526003602052604090206122b190612ed0565b811015612415576001600160a01b038416600090815260036020526040812060029082906122df9085612eda565b815260208082019290925260409081016000908120825160c08101845281546001600160a01b03908116825260018084015490911682870181905260028401548387019081526003850154606085015260048501546080850190815260059095015460a0850152908552600b8752858520935185529286528484208551808701909652805480875291015495850186905291519095509293919290916123859083613482565b61238f9190613533565b612399919061354a565b905060008360a00151826123ad9190613482565b600d5460208601519192506001600160a01b039081169116036123d7576123d481876133f1565b95505b600c5460208501516001600160a01b039182169116036123fe576123fb81886133f1565b96505b50505050808061240d9061355e565b915050612290565b50915091565b60008060005b838110156127bb5760006002600087878581811061244157612441613504565b6020908102929092013583525081019190915260400160002080549091506001600160a01b031633146124dc5760405162461bcd60e51b815260206004820152602a60248201527f53656e646572206d757374206d61746368207374616b6572206f66206465706f60448201527f736974207265636f7264000000000000000000000000000000000000000000006064820152608401610b4d565b43816004015411156125565760405162461bcd60e51b815260206004820152603360248201527f556e6c6f636b206461746520666f72206465706f736974207265636f7264206860448201527f6173206e6f74206265656e2072656163686564000000000000000000000000006064820152608401610b4d565b80600201548160050154036125ad5760405162461bcd60e51b815260206004820152601960248201527f4465706f73697420616c72656164792077697468647261776e000000000000006044820152606401610b4d565b6001808201546001600160a01b03166000908152600b602090815260408083206004860154845282528083208151808301909252805480835294015491810182905260028501549093916126019083613482565b61260b9190613533565b612615919061354a565b905060008360050154826126299190613482565b9050806000036126a15760405162461bcd60e51b815260206004820152602760248201527f4e6f20617661696c61626c6520616d6f756e7420666f7220746869732064657060448201527f6f736974206964000000000000000000000000000000000000000000000000006064820152608401610b4d565b808460050160008282546126b591906133f1565b9091555050600c5460018501546001600160a01b039182169116036126e5576126de81886133f1565b96506127a4565b600d5460018501546001600160a01b039182169116036127105761270981876133f1565b95506127a4565b60405162461bcd60e51b815260206004820152604c60248201527f53686f756c64206e6f742062652061206465706f736974207265636f7264206660448201527f6f72206173736574732062657369646520737461626c65636f696e206f72207060648201527f726f746f636f6c546f6b656e0000000000000000000000000000000000000000608482015260a401610b4d565b5050505080806127b39061355e565b915050612421565b5081156128c357600c546040517fa9059cbb000000000000000000000000000000000000000000000000000000008152336004820152602481018490526001600160a01b039091169063a9059cbb906044016020604051808303816000875af115801561282c573d6000803e3d6000fd5b505050506040513d601f19601f820116820180604052508101906128509190613404565b61285957600080fd5b600c546001600160a01b031660009081526005602052604081208054849290612883908490613482565b9091555050336000908152600660209081526040808320600c546001600160a01b03168452909152812080548492906128bd908490613482565b90915550505b8015611f9157600d546040517fa9059cbb000000000000000000000000000000000000000000000000000000008152336004820152602481018390526001600160a01b039091169063a9059cbb906044016020604051808303816000875af1158015612933573d6000803e3d6000fd5b505050506040513d601f19601f820116820180604052508101906129579190613404565b61296057600080fd5b600d546001600160a01b03166000908152600560205260408120805484929061298a908490613482565b9091555050336000908152600660209081526040808320600d546001600160a01b0316845290915281208054849290610784908490613482565b7f00000000000000000000000000000000000000000000000000000000000000006001600160a01b031663cb23bcb56040518163ffffffff1660e01b8152600401602060405180830381865afa158015612a22573d6000803e3d6000fd5b505050506040513d601f19601f82011682018060405250810190612a4691906133a5565b6001600160a01b0316336001600160a01b031614612a6357600080fd5b6000838152600a602090815260408083206001600160a01b038616845290915281208054839290612a959084906133f1565b9091555050505050565b6060818310612af05760405162461bcd60e51b815260206004820152600d60248201527f496e76616c69642072616e6765000000000000000000000000000000000000006044820152606401610b4d565b6000612afc8484613482565b67ffffffffffffffff811115612b1457612b14613596565b604051908082528060200260200182016040528015612b7957816020015b612b66604051806080016040528060008152602001600081526020016000815260200160006001600160a01b031681525090565b815260200190600190039081612b325790505b509050835b83811015611913576000818152600760209081526040918290208251608081018452815481526001820154928101929092526002810154928201929092526003909101546001600160a01b0316606082015282612bdb8784613482565b81518110612beb57612beb613504565b60200260200101819052508080612c019061355e565b915050612b7e565b6060600060015467ffffffffffffffff811115612c2857612c28613596565b604051908082528060200260200182016040528015612c8d57816020015b612c7a604051806080016040528060008152602001600081526020016000815260200160006001600160a01b031681525090565b815260200190600190039081612c465790505b50905060005b600154811015612d19576000818152600760209081526040918290208251608081018452815481526001820154928101929092526002810154928201929092526003909101546001600160a01b031660608201528251839083908110612cfb57612cfb613504565b60200260200101819052508080612d119061355e565b915050612c93565b50919050565b6001600160a01b038116600090815260036020526040902060609061178d90612ec3565b60008062989680612d5784622dc6c0613533565b612d61919061354a565b612d709064e8d4a51000613533565b905062989680612d83826216e360613533565b612d8d919061354a565b9392505050565b612d9c612fbb565b6000612dab624f1a0084613455565b90506000808211612dbd576000612dbf565b815b612dc99085613482565b90507f00000000000000000000000000000000000000000000000000000000000000006001600160a01b031663d43a33ea6040518163ffffffff1660e01b8152600401602060405180830381865afa158015612e29573d6000803e3d6000fd5b505050506040513d601f19601f82011682018060405250810190612e4d9190613469565b8210612e6357612e60624f1a00826133f1565b90505b60005b6003811015612eaf57612e7c81624f1a00613533565b612e8690836133f1565b848260038110612e9857612e98613504565b602002015280612ea78161355e565b915050612e66565b505050919050565b6000612d8d8383612ee6565b60606000612d8d83612f35565b600061178d825490565b6000612d8d8383612f91565b6000818152600183016020526040812054612f2d5750815460018181018455600084815260208082209093018490558454848252828601909352604090209190915561178d565b50600061178d565b606081600001805480602002602001604051908101604052809291908181526020018280548015612f8557602002820191906000526020600020905b815481526020019060010190808311612f71575b50505050509050919050565b6000826000018281548110612fa857612fa8613504565b9060005260206000200154905092915050565b60405180606001604052806003906020820280368337509192915050565b6001600160a01b0381168114612fee57600080fd5b50565b6000806000806080858703121561300757600080fd5b8435935060208501359250604085013561302081612fd9565b9396929550929360600135925050565b60008060006060848603121561304557600080fd5b833561305081612fd9565b95602085013595506040909401359392505050565b60006020828403121561307757600080fd5b813567ffffffffffffffff81111561308e57600080fd5b820160808185031215612d8d57600080fd5b6000602082840312156130b257600080fd5b5035919050565b600080604083850312156130cc57600080fd5b82356130d781612fd9565b946020939093013593505050565b6000602082840312156130f757600080fd5b8135612d8d81612fd9565b602080825282518282018190526000919060409081850190868401855b8281101561317957815180516001600160a01b0390811686528782015116878601528581015186860152606080820151908601526080808201519086015260a0908101519085015260c0909301929085019060010161311f565b5091979650505050505050565b6000806020838503121561319957600080fd5b823567ffffffffffffffff808211156131b157600080fd5b818501915085601f8301126131c557600080fd5b8135818111156131d457600080fd5b8660208260051b85010111156131e957600080fd5b60209290920196919550909350505050565b60008060006060848603121561321057600080fd5b833561321b81612fd9565b925060208401359150604084013561323281612fd9565b809150509250925092565b60608101818360005b6003811015613265578151835260209283019290910190600101613246565b50505092915050565b6000806040838503121561328157600080fd5b823561328c81612fd9565b9150602083013561329c81612fd9565b809150509250929050565b6000806000606084860312156132bc57600080fd5b8335925060208401356132ce81612fd9565b929592945050506040919091013590565b600080604083850312156132f257600080fd5b50508035926020909101359150565b602080825282518282018190526000919060409081850190868401855b8281101561317957815180518552868101518786015285810151868601526060908101516001600160a01b0316908501526080909301929085019060010161331e565b6020808252825182820181905260009190848201906040850190845b818110156133995783518352928401929184019160010161337d565b50909695505050505050565b6000602082840312156133b757600080fd5b8151612d8d81612fd9565b7f4e487b7100000000000000000000000000000000000000000000000000000000600052601160045260246000fd5b8082018082111561178d5761178d6133c2565b60006020828403121561341657600080fd5b81518015158114612d8d57600080fd5b7f4e487b7100000000000000000000000000000000000000000000000000000000600052601260045260246000fd5b60008261346457613464613426565b500690565b60006020828403121561347b57600080fd5b5051919050565b8181038181111561178d5761178d6133c2565b60008083357fffffffffffffffffffffffffffffffffffffffffffffffffffffffffffffffe18436030181126134ca57600080fd5b83018035915067ffffffffffffffff8211156134e557600080fd5b6020019150600581901b36038213156134fd57600080fd5b9250929050565b7f4e487b7100000000000000000000000000000000000000000000000000000000600052603260045260246000fd5b808202811582820484141761178d5761178d6133c2565b60008261355957613559613426565b500490565b60007fffffffffffffffffffffffffffffffffffffffffffffffffffffffffffffffff820361358f5761358f6133c2565b5060010190565b7f4e487b7100000000000000000000000000000000000000000000000000000000600052604160045260246000fd5b6000815180845260005b818110156135eb576020818501810151868301820152016135cf565b5060006020828601015260207fffffffffffffffffffffffffffffffffffffffffffffffffffffffffffffffe0601f83011685010191505092915050565b600060808201868352602060808185015281875180845260a086019150828901935060005b8181101561368c57845180516001600160a01b039081168552858201511685850152604090810151908401529383019360609092019160010161364e565b505084810360408601526136a081886135c5565b93505050506136ba60608301846001600160a01b03169052565b95945050505050565b6000602082840312156136d557600080fd5b815160ff81168114612d8d57600080fd5b600181815b8085111561373f57817fffffffffffffffffffffffffffffffffffffffffffffffffffffffffffffffff04821115613725576137256133c2565b8085161561373257918102915b93841c93908002906136eb565b509250929050565b6000826137565750600161178d565b816137635750600061178d565b816001811461377957600281146137835761379f565b600191505061178d565b60ff841115613794576137946133c2565b50506001821b61178d565b5060208310610133831016604e8410600b84101617156137c2575081810a61178d565b6137cc83836136e6565b807fffffffffffffffffffffffffffffffffffffffffffffffffffffffffffffffff048211156137fe576137fe6133c2565b029392505050565b6000612d8d60ff84168361374756",
    "linkReferences": {}
  },
  "methodIdentifiers": {
    "ACTIVE_PERIODS()": "1dd91e34",
    "PERIOD_LENGTH()": "e7a891b9",
    "ROOT_PROPOSAL_LOCK_AMOUNT()": "ab900a8d",
    "claim((uint256[],uint256[],uint256,address[]))": "1b35ee56",
    "currentDepositId()": "b4104d10",
    "currentLockId()": "30a5c2f0",
    "deposits(uint256)": "b02c43d0",
    "getActiveTranches()": "94463bb3",
    "getActiveTranches(uint256)": "df7bb61f",
    "getAllLockRecords()": "c8675507",
    "getAvailableToClaim(address,uint256,address)": "675befd2",
    "getLockRecords(uint256,uint256)": "a6f30ccb",
    "getUnlocked(address)": "94e11ca8",
    "getUserDepositIds(address)": "d4e4487d",
    "getUserDepositRecords(address)": "3e8e42b2",
    "individualStaked(address,address)": "a2cc4497",
    "lock(address,uint256)": "282d3fdf",
    "locks(uint256)": "f4dadc61",
    "minimumProtocolStake()": "30e13a6a",
    "minimumStablecoinStake()": "b00ea817",
    "payInsurance(uint256,address,uint256)": "a6d7f27d",
    "protocolToken()": "1a465fe1",
    "reward(uint256,uint256,address,uint256)": "03c1e4b2",
    "stablecoin()": "e9cbd822",
    "stablecoinToProtocol(uint256)": "d86d30a4",
    "stake(address,uint256,uint256)": "0c51b88f",
    "stakeProtocol(uint256)": "20755d00",
    "stakeStablecoin(uint256)": "3ecbdc9c",
    "totalStaked(address)": "9bfd8d61",
    "unlock(uint256[])": "5d36598f",
    "withdraw(uint256[])": "983d95ce"
  },
  "id": 62
}